{
  "contractName": "ValidationTest",
  "abi": [
    {
      "inputs": [
        {
          "internalType": "address",
          "name": "_accountManager",
          "type": "address"
        }
      ],
      "stateMutability": "nonpayable",
      "type": "constructor"
    },
    {
      "inputs": [],
      "name": "getManager",
      "outputs": [
        {
          "internalType": "address",
          "name": "",
          "type": "address"
        }
      ],
      "stateMutability": "view",
      "type": "function",
      "constant": true
    },
    {
      "inputs": [
        {
          "internalType": "address",
          "name": "_owner",
          "type": "address"
        },
        {
          "internalType": "uint256",
          "name": "_earningsToDate",
          "type": "uint256"
        },
        {
          "internalType": "uint256",
          "name": "_nonce",
          "type": "uint256"
        }
      ],
      "name": "hashForSignature",
      "outputs": [
        {
          "internalType": "bytes32",
          "name": "",
          "type": "bytes32"
        }
      ],
      "stateMutability": "pure",
      "type": "function",
      "constant": true
    },
    {
      "inputs": [
        {
          "internalType": "address",
          "name": "_to",
          "type": "address"
        },
        {
          "internalType": "uint256",
          "name": "_earningsToDate",
          "type": "uint256"
        },
        {
          "internalType": "uint256",
          "name": "_nonce",
          "type": "uint256"
        },
        {
          "internalType": "bytes",
          "name": "_signature",
          "type": "bytes"
        }
      ],
      "name": "validateSig",
      "outputs": [],
      "stateMutability": "nonpayable",
      "type": "function"
    },
    {
      "inputs": [
        {
          "internalType": "address",
          "name": "_to",
          "type": "address"
        },
        {
          "internalType": "uint256",
          "name": "_earningsToDate",
          "type": "uint256"
        },
        {
          "internalType": "uint256",
          "name": "_nonce",
          "type": "uint256"
        },
        {
          "internalType": "bytes",
          "name": "_signature",
          "type": "bytes"
        }
      ],
      "name": "validateSig2",
      "outputs": [],
      "stateMutability": "nonpayable",
      "type": "function"
    }
  ],
  "bytecode": "0x608060405234801561001057600080fd5b5060405161064d38038061064d8339818101604052602081101561003357600080fd5b5051600080546001600160a01b039092166001600160a01b03199092169190911790556105e8806100656000396000f3fe608060405234801561001057600080fd5b506004361061004c5760003560e01c80631e624af414610051578063d500958414610115578063edb7e3a214610139578063f69766f7146101fb575b600080fd5b6101136004803603608081101561006757600080fd5b6001600160a01b03823516916020810135916040820135919081019060808101606082013564010000000081111561009e57600080fd5b8201836020820111156100b057600080fd5b803590602001918460018302840111640100000000831117156100d257600080fd5b91908080601f01602080910402602001604051908101604052809392919081815260200183838082843760009201919091525092955061023f945050505050565b005b61011d6102ab565b604080516001600160a01b039092168252519081900360200190f35b6101136004803603608081101561014f57600080fd5b6001600160a01b03823516916020810135916040820135919081019060808101606082013564010000000081111561018657600080fd5b82018360208201111561019857600080fd5b803590602001918460018302840111640100000000831117156101ba57600080fd5b91908080601f0160208091040260200160405190810160405280939291908181526020018383808284376000920191909152509295506102ba945050505050565b61022d6004803603606081101561021157600080fd5b506001600160a01b0381351690602081013590604001356102d2565b60408051918252519081900360200190f35b600061025561024f8686866102d2565b83610315565b6000549091506001600160a01b038083169116146102a45760405162461bcd60e51b81526004018080602001828103825260218152602001806105926021913960400191505060405180910390fd5b5050505050565b6000546001600160a01b031690565b600061025561024f6102cd8787876102d2565b6104fc565b604080516001600160a01b038516602080830191909152818301859052606080830185905283518084039091018152608090920190925280519101209392505050565b6000815160411461036d576040805162461bcd60e51b815260206004820152601f60248201527f45434453413a20696e76616c6964207369676e6174757265206c656e67746800604482015290519081900360640190fd5b60208201516040830151606084015160001a7f7fffffffffffffffffffffffffffffff5d576e7357a4501ddfe92f46681b20a08211156103de5760405162461bcd60e51b815260040180806020018281038252602281526020018061054e6022913960400191505060405180910390fd5b8060ff16601b141580156103f657508060ff16601c14155b156104325760405162461bcd60e51b81526004018080602001828103825260228152602001806105706022913960400191505060405180910390fd5b60408051600080825260208083018085528a905260ff85168385015260608301879052608083018690529251909260019260a080820193601f1981019281900390910190855afa15801561048a573d6000803e3d6000fd5b5050604051601f1901519150506001600160a01b0381166104f2576040805162461bcd60e51b815260206004820152601860248201527f45434453413a20696e76616c6964207369676e61747572650000000000000000604482015290519081900360640190fd5b9695505050505050565b604080517f19457468657265756d205369676e6564204d6573736167653a0a333200000000602080830191909152603c8083019490945282518083039094018452605c90910190915281519101209056fe45434453413a20696e76616c6964207369676e6174757265202773272076616c756545434453413a20696e76616c6964207369676e6174757265202776272076616c75657369676e6572206973206e6f7420746865206163636f756e74206d616e61676572a2646970667358221220ee5aa37eb45b4de95619439d9a08112ef85618ad4763e96abb57c3a21b08f22c64736f6c63430006090033",
  "immutableReferences": {},
  "source": "// SPDX-License-Identifier: MIT\npragma solidity 0.6.9;\n\nimport \"./ECDSA.sol\";\n\ncontract ValidationTest {\n    address accountManager;\n\tconstructor(address _accountManager) public {\n        accountManager = _accountManager;\n\t}\n\n    function getManager() public view returns (address) {\n        return accountManager;\n    }\n\n    function hashForSignature(address _owner, uint256 _earningsToDate, uint256 _nonce) public pure returns (bytes32) {\n        return keccak256(abi.encode(_owner, _earningsToDate, _nonce));\n    }\n\n\tfunction validateSig(address _to, uint256 _earningsToDate, uint256 _nonce, bytes memory _signature) public {\n        address signer = ECDSA.recover(ECDSA.toEthSignedMessageHash(hashForSignature(_to, _earningsToDate, _nonce)), _signature);\n        require(signer == accountManager, \"signer is not the account manager\");\n\t}\n    function validateSig2(address _to, uint256 _earningsToDate, uint256 _nonce, bytes memory _signature) public {\n        address signer = ECDSA.recover(hashForSignature(_to, _earningsToDate, _nonce), _signature);\n        require(signer == accountManager, \"signer is not the account manager\");\n    }\n\n\n}\n",
  "sourcePath": "/home/mark/dev/ECDSA/contracts/ValidationTest.sol",
  "compiler": {
    "name": "solc",
    "version": "0.6.9+commit.3e3065ac.Emscripten.clang"
  },
  "schemaVersion": "3.4.1",
  "updatedAt": "2021-06-18T15:01:36.165Z",
  "networkType": "ethereum",
  "devdoc": {
    "methods": {}
  },
  "userdoc": {
    "methods": {}
  }
}