{
  "contractName": "ValidationTest",
  "abi": [
    {
      "inputs": [
        {
          "internalType": "address",
          "name": "_owner",
          "type": "address"
        },
        {
          "internalType": "uint256",
          "name": "_earningsToDate",
          "type": "uint256"
        },
        {
          "internalType": "uint256",
          "name": "_nonce",
          "type": "uint256"
        }
      ],
      "name": "hashForSignature",
      "outputs": [
        {
          "internalType": "bytes32",
          "name": "",
          "type": "bytes32"
        }
      ],
      "stateMutability": "pure",
      "type": "function",
      "constant": true
    },
    {
      "inputs": [
        {
          "internalType": "bytes",
          "name": "signature",
          "type": "bytes"
        },
        {
          "internalType": "uint256",
          "name": "a",
          "type": "uint256"
        }
      ],
      "name": "validateSig",
      "outputs": [
        {
          "internalType": "address",
          "name": "",
          "type": "address"
        }
      ],
      "stateMutability": "nonpayable",
      "type": "function"
    }
  ],
  "bytecode": "0x608060405234801561001057600080fd5b50610509806100206000396000f3fe608060405234801561001057600080fd5b50600436106100365760003560e01c80630d060a371461003b578063f69766f7146100ff575b600080fd5b6100e36004803603604081101561005157600080fd5b81019060208101813564010000000081111561006c57600080fd5b82018360208201111561007e57600080fd5b803590602001918460018302840111640100000000831117156100a057600080fd5b91908080601f0160208091040260200160405190810160405280939291908181526020018383808284376000920191909152509295505091359250610143915050565b604080516001600160a01b039092168252519081900360200190f35b6101316004803603606081101561011557600080fd5b506001600160a01b038135169060208101359060400135610265565b60408051918252519081900360200190f35b604080517f454950373132446f6d61696e28737472696e67206e616d65290000000000000081528151908190036019018120818301835260058252640accad8def60db1b6020928301528251808301919091527fdb78eeeade5c9c9d41ab9ad6ee489bee0c1f3626c5c878fc857a9d443418130a8184015282518082038401815260608083018086528251928501929092207253747261746567792875696e7432353620612960681b909252845192839003607301832083850152828501869052845180840386018152908301855280519084012061190160f01b60808401526082830182905260a28084018290528551808503909101815260c290930190945281519190920120600092908361025a82886102a8565b979650505050505050565b604080516001600160a01b038516602080830191909152818301859052606080830185905283518084039091018152608090920190925280519101209392505050565b60008151604114610300576040805162461bcd60e51b815260206004820152601f60248201527f45434453413a20696e76616c6964207369676e6174757265206c656e67746800604482015290519081900360640190fd5b60208201516040830151606084015160001a7f7fffffffffffffffffffffffffffffff5d576e7357a4501ddfe92f46681b20a08211156103715760405162461bcd60e51b81526004018080602001828103825260228152602001806104906022913960400191505060405180910390fd5b8060ff16601b1415801561038957508060ff16601c14155b156103c55760405162461bcd60e51b81526004018080602001828103825260228152602001806104b26022913960400191505060405180910390fd5b60408051600080825260208083018085528a905260ff85168385015260608301879052608083018690529251909260019260a080820193601f1981019281900390910190855afa15801561041d573d6000803e3d6000fd5b5050604051601f1901519150506001600160a01b038116610485576040805162461bcd60e51b815260206004820152601860248201527f45434453413a20696e76616c6964207369676e61747572650000000000000000604482015290519081900360640190fd5b969550505050505056fe45434453413a20696e76616c6964207369676e6174757265202773272076616c756545434453413a20696e76616c6964207369676e6174757265202776272076616c7565a2646970667358221220eebbbaaf2e5a6d6d1d72e28ab76399ffaaa27db6e613c0601fc1387a805c4b9364736f6c63430006090033",
  "immutableReferences": {},
  "source": "// SPDX-License-Identifier: MIT\npragma solidity 0.6.9;\n\nimport \"./ECDSA.sol\";\n\ncontract ValidationTest {\n//    address accountManager;\n//\tconstructor(address _accountManager) public {\n//        accountManager = _accountManager;\n//\t}\n//\n//    function getManager() public view returns (address) {\n//        return accountManager;\n//    }\n\n\n\n\n\n    function hashForSignature(address _owner, uint256 _earningsToDate, uint256 _nonce) public pure returns (bytes32) {\n        return keccak256(abi.encode(_owner, _earningsToDate, _nonce));\n    }\n\n\n\n\n\tfunction validateSig(bytes memory signature,uint a) public returns (address){\n        bytes32 eip712DomainHash = keccak256(\n            abi.encode(\n                keccak256(\n                    \"EIP712Domain(string name)\"\n                ),\n                keccak256(bytes(\"Velox\"))\n            )\n        );\n        bytes32 hashStruct = keccak256(\n            abi.encode(\n            // keccak256(\"Strategy(string a,string b,string c)\"),\n                keccak256(\"Strategy(uint256 a)\"),\n                a\n            // b,\n            // c\n            )\n        );\n        bytes32 hash = keccak256(abi.encodePacked(\"\\x19\\x01\", eip712DomainHash, hashStruct));\n        address signer = ECDSA.recover(hash, signature);\n        return signer;\n\n        return address(this);\n\t}\n\n}\n",
  "sourcePath": "/home/mark/dev/ECDSA/contracts/ValidationTest.sol",
  "compiler": {
    "name": "solc",
    "version": "0.6.9+commit.3e3065ac.Emscripten.clang"
  },
  "schemaVersion": "3.4.1",
  "updatedAt": "2021-09-03T04:19:35.267Z",
  "networkType": "ethereum",
  "devdoc": {
    "methods": {}
  },
  "userdoc": {
    "methods": {}
  }
}