{
  "contractName": "ValidationTest",
  "abi": [
    {
      "inputs": [
        {
          "internalType": "address",
          "name": "_accountManager",
          "type": "address"
        }
      ],
      "stateMutability": "nonpayable",
      "type": "constructor"
    },
    {
      "inputs": [
        {
          "internalType": "address",
          "name": "_owner",
          "type": "address"
        },
        {
          "internalType": "uint256",
          "name": "_earningsToDate",
          "type": "uint256"
        },
        {
          "internalType": "uint256",
          "name": "_nonce",
          "type": "uint256"
        }
      ],
      "name": "hashForSignature",
      "outputs": [
        {
          "internalType": "bytes32",
          "name": "",
          "type": "bytes32"
        }
      ],
      "stateMutability": "pure",
      "type": "function",
      "constant": true
    },
    {
      "inputs": [
        {
          "internalType": "address",
          "name": "_to",
          "type": "address"
        },
        {
          "internalType": "uint256",
          "name": "_earningsToDate",
          "type": "uint256"
        },
        {
          "internalType": "uint256",
          "name": "_nonce",
          "type": "uint256"
        },
        {
          "internalType": "bytes",
          "name": "_signature",
          "type": "bytes"
        }
      ],
      "name": "validateSig",
      "outputs": [],
      "stateMutability": "nonpayable",
      "type": "function"
    }
  ],
  "bytecode": "0x608060405234801561001057600080fd5b506040516104dd3803806104dd8339818101604052602081101561003357600080fd5b5051600080546001600160a01b039092166001600160a01b0319909216919091179055610478806100656000396000f3fe608060405234801561001057600080fd5b50600436106100365760003560e01c8063edb7e3a21461003b578063f69766f7146100ff575b600080fd5b6100fd6004803603608081101561005157600080fd5b6001600160a01b03823516916020810135916040820135919081019060808101606082013564010000000081111561008857600080fd5b82018360208201111561009a57600080fd5b803590602001918460018302840111640100000000831117156100bc57600080fd5b91908080601f016020809104026020016040519081016040528093929190818152602001838380828437600092019190915250929550610143945050505050565b005b6101316004803603606081101561011557600080fd5b506001600160a01b0381351690602081013590604001356101af565b60408051918252519081900360200190f35b60006101596101538686866101af565b836101f2565b6000549091506001600160a01b038083169116146101a85760405162461bcd60e51b81526004018080602001828103825260218152602001806104226021913960400191505060405180910390fd5b5050505050565b604080516001600160a01b038516602080830191909152818301859052606080830185905283518084039091018152608090920190925280519101209392505050565b6000815160411461024a576040805162461bcd60e51b815260206004820152601f60248201527f45434453413a20696e76616c6964207369676e6174757265206c656e67746800604482015290519081900360640190fd5b60208201516040830151606084015160001a7f7fffffffffffffffffffffffffffffff5d576e7357a4501ddfe92f46681b20a08211156102bb5760405162461bcd60e51b81526004018080602001828103825260228152602001806103de6022913960400191505060405180910390fd5b8060ff16601b141580156102d357508060ff16601c14155b1561030f5760405162461bcd60e51b81526004018080602001828103825260228152602001806104006022913960400191505060405180910390fd5b600060018783868660405160008152602001604052604051808581526020018460ff1681526020018381526020018281526020019450505050506020604051602081039080840390855afa15801561036b573d6000803e3d6000fd5b5050604051601f1901519150506001600160a01b0381166103d3576040805162461bcd60e51b815260206004820152601860248201527f45434453413a20696e76616c6964207369676e61747572650000000000000000604482015290519081900360640190fd5b969550505050505056fe45434453413a20696e76616c6964207369676e6174757265202773272076616c756545434453413a20696e76616c6964207369676e6174757265202776272076616c75657369676e6572206973206e6f7420746865206163636f756e74206d616e61676572a2646970667358221220d6876c99007e41b299b3f72cfb086d7f90d7cff7afccd10323cf72783e32646064736f6c63430007040033",
  "immutableReferences": {},
  "source": "// SPDX-License-Identifier: MIT\npragma solidity 0.7.4;\n\nimport \"./ECDSA.sol\";\n\ncontract ValidationTest {\n    address accountManager;\n\tconstructor(address _accountManager) public {\n        accountManager = _accountManager;\n\t}\n\n    function hashForSignature(address _owner, uint256 _earningsToDate, uint256 _nonce) public pure returns (bytes32) {\n        return keccak256(abi.encode(_owner, _earningsToDate, _nonce));\n    }\n\n\tfunction validateSig(address _to, uint _earningsToDate, uint256 _nonce, bytes memory _signature) public {\n        address signer = ECDSA.recover(hashForSignature(_to, _earningsToDate, _nonce), _signature);\n        require(signer == accountManager, \"signer is not the account manager\");\n\t}\n\n\n}\n",
  "sourcePath": "/home/mark/dev/ECDSA/contracts/ValidationTest.sol",
  "compiler": {
    "name": "solc",
    "version": "0.7.4+commit.3f05b770.Emscripten.clang"
  },
  "schemaVersion": "3.4.1",
  "updatedAt": "2021-06-18T04:57:26.251Z",
  "networkType": "ethereum",
  "devdoc": {
    "kind": "dev",
    "methods": {},
    "version": 1
  },
  "userdoc": {
    "kind": "user",
    "methods": {},
    "version": 1
  }
}